:020000040000FA
:1000000088100020A5040000AF040000AD0400002B
:10001000B1040000B3040000B504000000000000BB
:10002000000000000000000000000000B704000015
:10003000B904000000000000BB040000BD04000083
:10004000BF040000C1040000C3040000C504000098
:10005000C7040000C9040000CB040000CD04000068
:10006000CF040000D10400000000000000000000E8
:100070000000000000000000000000000000000080
:100080000000000000000000000000000000000070
:100090000000000000000000000000000000000060
:1000A0000000000000000000000000000000000050
:1003C00000F002F800F05EF80AA090E8000C824409
:1003D0008344AAF10107DA4501D100F053F8AFF2E6
:1003E000090EBAE80F0013F0010F18BFFB1A43F013
:1003F000010318477C2500009C250000103A24BF0B
:1004000078C878C1FAD8520724BF30C830C144BF79
:1004100004680C60704700000023002400250026BB
:10042000103A28BF78C1FBD8520728BF30C148BF57
:100430000B607047702900F04D81662902F02F8211
:10044000642900F0D780782900F03781632900F013
:100450002785732900F02C85002070471FB50648BA
:10046000064900F075FA00F039FD04000020002173
:1004700001F064FFE0601FBD88000020880C0020B0
:1004800010B510BDDFF80CD0FFF7E8FF01F008FD54
:1004900000F059FE8810002003B4FFF7F1FF03BC01
:1004A00001F0BFFC0B4880470B480047FEE7FEE722
:1004B000FEE7FEE7FEE7FEE7FEE7FEE7FEE7FEE714
:1004C000FEE7FEE7FEE7FEE7FEE7FEE7FEE7FEE704
:1004D000FEE70000491D0000C103000070B506469C
:1004E00000F01AFA056806F10B0020F00704B44288
:1004F0009CBF002070BD2B466A68BAB11068A0424C
:1005000010D304F1080188423CBF5068586007D3FB
:100510005168101941601168091B0160586014602E
:10052000101D70BD13465268002AE7D121462846A7
:1005300000F0FAF90028DED170BD70B50446051F41
:1005400000F0EAF90068002C14BF446870BD002C6C
:1005500018BFAC423CBF20466468F8D301680A1853
:10056000AA4218BF456003D12A68054611440160BC
:1005700028684119A1421CBF6C6070BD6168696048
:1005800021680844286070BD0FB4044910B503AA5F
:10059000029800F091FC10BC5DF814FB00000020F4
:1005A00070B50C460546012A05D02878800600D58E
:1005B000EA69002302E0012305E05B1C934202D2BA
:1005C000E05C0028F9D1A869E618C01AA861286A79
:1005D000184428622846AFF3008004E0D5E90121E1
:1005E00014F8010B9047B442F8D32846AFF30080CB
:1005F00070BD00002DE9F041064600241068752901
:10060000314616A510D0AFF30080002802DA404230
:1006100013A507E031688A0701D512A502E0490752
:1006200004D511A5012401E0AFF3008000210A22C6
:1006300006F1240709E0B0FBF2FCB0FBF2F302FB89
:100640001C00303078541846491C0028F3D123464A
:100650002A463046BDE8F04100F0B0B90000000085
:100660002D0000002B00000020000000F0B40D461B
:100670000188090502D51B4C7C4402E0194C7C44DE
:100680000E34002100F1240305E002F00F061209E8
:10069000A65D5E54491C002AF7D102780023120798
:1006A00004D5702D06D009B1022311342246F0BCC6
:1006B00000F084B901231034F8E770B504460D4604
:1006C00021461068AFF30080024629462046BDE867
:1006D0007040CBE70368126843F0200303600823EF
:1006E000C361C3E7262200002DE9F05F8946044676
:1006F0004FF0000ADFF824B1FB44C0F820A02046E8
:10070000E168884700287DD0252806D0D4E901215A
:100710009047206A401C2062F1E700255F46204692
:10072000E16888472028064607DB312E05D2B81934
:1007300010F8200C08B10543F1E7A80701D525F012
:100740000405C4F81CA00027C4F818A02A2E09D05C
:10075000304601F05FFB38B304EB8708303EC8F841
:10076000186019E059F8041B204604EB87029161D8
:10077000E1688847012F064618D1E069002820DA91
:1007800025F020051DE0D8F8180000EB800006EBEE
:1007900040003038C8F818002046E168884706460F
:1007A00001F038FB0028EED1012F0AD02E2E08D1FF
:1007B0002046E16888477F1C0646022F45F0200549
:1007C000C4DBA069002803DA404245F00105A061BE
:1007D000E80701D025F01005A6B1A6F141001928BF
:1007E00002D8203645F400654A4631462046256049
:1007F0004D46FFF71FFE60B1012807D0ED1D25F023
:10080000070000E007E000F1080978E705F10409B6
:1008100075E730467AE7206ABDE8F09FCE210000F8
:1008200010B5431C02E010F8011B71B18107FAD129
:100830004FF0013202C88C1A8C4314EAC211F9D06D
:10084000C01A0A0603D0C01E10BDC01A10BD0A048B
:1008500001D0801E10BD0902FCD0401E10BD10B595
:10086000203AC0F00B80B1E81850203AA0E81850A8
:10087000B1E81850A0E81850BFF4F5AF5FEA027C69
:1008800024BFB1E81850A0E8185044BF18C918C0D8
:10089000BDE810405FEA827C24BF51F8043B40F879
:1008A000043B08BF7047D20728BF31F8023B48BF5E
:1008B00011F8012B28BF20F8023B48BF00F8012B9C
:1008C00070474FF0000200B5134694469646203913
:1008D00022BFA0E80C50A0E80C50B1F12001BFF4F9
:1008E000F7AF090728BFA0E80C5048BF0CC05DF85F
:1008F00004EB890028BF40F8042B08BF704748BFAD
:1009000020F8022B11F0804F18BF00F8012B704720
:100910007047704770470000004870472C00002067
:10092000704770477047704738B504460A46002044
:100930006946AFF30080002808BF38BD0246009921
:10094000204600F0CFFA012038BD012000F0F4BBB2
:10095000F8B5AFF30080054600200C46102000BF1C
:100960000646A819A0420DD9324669460020AFF3C9
:100970000080070008BF00F0DFFB0098A04218BF0E
:100980000546C419FFF7C8FF05600746F01D20F0B3
:1009900007004619284600F00AF8B44208BFF8BD1F
:1009A000A21B31463868BDE8F84000F09BBA002130
:1009B0000160C0E901107047102070472DE9F04731
:1009C0000D4699469246044600F1240801688806BF
:1009D00004D5E06921F01001216000E00120A84267
:1009E00001DD471B00E00027A1697A1902EB09002D
:1009F000081AA0612078C00602D42046AFF3008018
:100A0000002608E0D4E901211AF806009047206A80
:100A1000401C761C20624E45F4DB2078C0060AD5C7
:100A20002046AFF3008006E0D4E901213020904752
:100A3000206A401C2062381EA7F10107F4DC07E0A1
:100A4000D4E9012118F805009047206A401C206273
:100A5000281EA5F10105F3DC2046AFF300802078C5
:100A6000000602D50220BDE8F0870120FBE77047B1
:100A70002DE9FF4F0C461E464FF0FF378BB0D2E9F1
:100A80000001DDF860800A908A46C1F30A5505B975
:100A90003D46002108464FF00000BAF1000F00F477
:100AA000400005DA00EB80004FF4400101EA5000FD
:100AB0004FEA9059B9F1010F00DDB9460A9850EAA2
:100AC0004A000ED044F61050A5F2FF3545432F14CE
:100AD000B8F1000F1ED07542291E1EDDC9F10002BB
:100AE0001CE0B8F1010F4FF0000001D0302103E00D
:100AF000F24305E02154401CB042FBDB30460022AB
:100B0000002121540B99C1F80880C1E900200FB0E1
:100B1000BDE8F08FBD1B6D1CDEE74A4600DA694276
:100B200006A800F097FA06AB93E8070003AB83E84A
:100B3000070050460A9900F096FB8DE80700A0F5E3
:100B400000501F3800900398002D0ADD42F21F016B
:100B50004A460844002303A90390684600F0FFFDBD
:100B600009E0A0F500504A461F38002303A903906E
:100B7000684600F009FE8DE807000004000C03D071
:100B80004FF0FF30410800E01046B8F1000F03D0ED
:100B90000022009215461EE0751E05D400F0BCF937
:100BA000303262556D1EF9D5B3460122084302D09A
:100BB00000227F1C04E02078302801D100227F1E13
:100BC000002A099784D01DE0112D07DA00F0A4F95E
:100BD000303262556D1C50EA0102F5D1084302D053
:100BE0000098C8B10EE00021681E05E0235C625C3D
:100BF00063542254401E491C8142F7DBAB46A81BBC
:100C0000401E0990002004F80B000B98099AC0F8C8
:100C10000880C0E9002B7AE711264FF0000857E75B
:100C20002DE9F04F88460446D21D22F0070191B00D
:100C3000D1E90001CDE90A0101F0D8F802460B988C
:100C4000C00F01D02D2007E02068810701D52B209F
:100C500002E0202101EAC000032A099001D0072AFE
:100C600005DB03464146204600F0B4F90BE120784D
:100C7000800601D5E06900E00620B8F1650F8146E5
:100C800006D0B8F1660F18D0B8F1670F70D131E017
:100C90000020B9F1110F009001DB112301E009F1EF
:100CA00001030AAA01A90CA8FFF7E2FEDDE90C7016
:100CB000002609F10105834647E001204B460090DC
:100CC0004FF000470AAA01A90CA8FFF7D1FEDDE901
:100CD0000DB00C995D46002610B909F101000D1800
:100CE000B9EB050003D4C0F1FF3609F10105A5EB0E
:100CF00009002BE0B9F1010F01DA4FF001090020E2
:100D0000B9F1110F0090484601DD112300E00346C0
:100D10000AAA01A90CA8FFF7ABFEDDE90C704D464D
:100D200000268346207800070AD4AB4500DA5D46EA
:100D300001A8012D04DD411911F8011C302907D04B
:100D40004F4502DA17F1040F04DA012082460FE062
:100D50006D1EEEE7002F02DCED1B3E4403E0781C25
:100D6000A84200DD7D1CB81B00F1010A4FF00047CE
:100D70002078000703D4AA4501DB4FF0FF3A002199
:100D8000B7F1004F0DF143088DF8431024D0022035
:100D90002B23002F01DA7F422D230A21021EA0F10E
:100DA000010000DC5FB197FBF1FC97FBF1F201FB66
:100DB0001C7C17460CF1300C08F801CDEEE7A8F1C9
:100DC000010003702188090501D5452100E0652156
:100DD000A0F1010800F8011C09980FA9A1EB080770
:100DE000FF1D00B10120411901EBEA70A1693844EF
:100DF000081A401EA0612078C00602D42046AFF336
:100E00000080099828B1D4E901219047206A401C4C
:100E100020622078C00622D52046AFF300801EE075
:100E2000002E04DBB34502DD01A8805D00E0302028
:100E3000D4E901219047206A401C2062761CAAF167
:100E400001005FEA000A0AD100F048F8C0680168B2
:100E5000405CD4E901219047206A401C2062281E92
:100E6000A5F10105DCDC07E0D4E9012118F8010B4C
:100E70009047206A401C2062381EA7F10107F3DC6E
:100E80002046AFF30080032011B041E610B543695E
:100E900013B1AFF3008001E0FFF782FB012010BD2A
:100EA000127800F124010A7000224A700122EDE755
:100EB00011684FF0FF32E9E7074B70B50D467B44F0
:100EC00000F075F80446284600F0B8FF10B14FF066
:100ED000FF3070BD204670BD830F00000048704792
:100EE00044000020034640688C46002818BF884212
:100EF0003CBF03464068F8D318681844884207D0BE
:100F00000CF1030020F00700001D411A521A01469F
:100F1000081D0A60FFF711BB30B5B0F10A024FEAB5
:100F2000900E71F100034EEA817EB0EB0E0061EB92
:100F300091014FEA101E4EEA017E10EB0E0041EBCC
:100F400011114FEA102E4EEA016E10EB0E0041EB2C
:100F500011214FEA104E4EEA014E10EB0E0041EB0C
:100F60001141401841F100014FEAD00040EA4170C0
:100F70004FEAD10110EB80054FEA810444EA9074F6
:100F800044EB01046D1944EB0404521BA3414FF0E0
:100F9000000348BF0A3200D530BD401C41F10001BA
:100FA00030BD000001694A1C02610878704700B535
:100FB0008FB0CDE901310021059105497944CDE992
:100FC000031011466846FFF78FFB0FB000BD00000D
:100FD000E5FFFFFF2DE9F0411F46044603260168A7
:100FE000072A01F4006004DB08B116A505E016A588
:100FF00003E008B115A500E015A521F01000206060
:10100000A069C01EA0610FB1401EA0612046AFF3D1
:1010100000804FB1D4E9012138469047206A401C36
:101020002062C01C206206E0206AFAE7D4E90121B0
:1010300015F8010B9047761EF8D22046AFF30080DA
:10104000BDE8F0814E414E006E616E00494E460093
:10105000696E66002DE9F047814616468AB035482C
:1010600078440DC88DE80D0032487844801C03ACEC
:101070000DC884E80D0041F69B300844372190FBF1
:10108000F1F290FBF1F5A5F1800501FB12041B3C88
:1010900002D56442012000E00020DFF898A08046DD
:1010A0000027FA44AAF1BE0A0EE0E0070AD0324651
:1010B000684607EB470101230AEB810100F064FB5E
:1010C0008DE8070064107F1C002CEED1194F7F447F
:1010D000AE3F19E0E80715D007EB04100DF1180A30
:1010E00090E80E008AE80E00C068F04201D198191D
:1010F00008903246012306A903A800F045FB03AB84
:1011000083E807006D10641C002DE3D14FF001034C
:1011100032466946B8F1000F03A802D000F01FFB69
:1011200001E000F031FBC9E90001C9F808200AB06C
:10113000BDE8F087F418000010B500F013F8BDE822
:10114000104000F009B810B50446AFF30080204607
:10115000BDE81040FFF7A0B9002801D000F061BE43
:101160007047000010B5012805D0002103A000F051
:1011700061F8012010BD09A1F8E70000534947526A
:10118000544D454D3A204F7574206F662068656157
:1011900070206D656D6F7279000000003A2048651F
:1011A0006170206D656D6F727920636F72727570FA
:1011B000746564004FF0013C50F8042B51F8043B77
:1011C0009A4221D1A2EB0C03934313EACC1317D11B
:1011D00050F8042B51F8043B9A4215D1A2EB0C03B2
:1011E000934313EACC130BD150F8042B51F8043B72
:1011F0009A4209D1A2EB0C03934313EACC13DBD040
:101200004FF00000704700BFD01A01BAB1FA81F167
:1012100001F0180122FA01F0CB40C1F12001DBB24C
:10122000C0B2C01A2CFA01F3D11A914311EAC311CA
:10123000E6D1704770B505460C460A2000E06D1CEB
:1012400000F0F2FD35B128780028F8D102E0641CE6
:1012500000F0EAFD14B120780028F8D1BDE8704014
:101260000A2000F0E1BD5FEA400C08BF91F0000FDA
:101270004FEA8C234FEAC12243EA51514FEA1C50F6
:1012800018BF00F5F0404FEA300018BF41F00041B0
:101290005FEA6C5C00F02980BCF1FF3F08BF40F0C2
:1012A00080407047130C06BF12044FF0100C4FF033
:1012B000000C130E04BF12020CF1080C130F04BF34
:1012C00012010CF1040C930F04BF92000CF1020CFC
:1012D000D30F04BF52000CF1010C11464FF0000275
:1012E000A0F11F00A0EB0C00704711F0004F08BFE9
:1012F000704731F000413FF4D5AF0B0C06BF090435
:101300004FF0100C4FF0000C0B0E04BF09020CF153
:10131000080C0B0F04BF09010CF1040C8B0F04BF68
:1013200089000CF1020CCB0F04BF49000CF1010C39
:10133000CCF12003A0EB0C0022FA03F302FA0CF22A
:1013400041EA030100F10100704720F07F4C80EA80
:10135000030023F07F47ACEB070303F57C5300F059
:10136000004003F1FF032DE980494FEA154B09B412
:101370004FEA144325EA0B4E24EA03480FF20426F1
:1013800006EB132749083E785FEA320203FB066743
:10139000C7F5000707FB06F64FEA54374FEAD64673
:1013A00006F1020607FB066CCCF1005C4FEA1C4715
:1013B0002CEA074C07FB06F40CFB06F504EB15467C
:1013C0004FEA961634BF00204FF000404FEAD13765
:1013D00006FB07FC4FEA1C4C0CFB0BF7D21B03FB74
:1013E0000CF761EB07010CFB0EF7B0EB074072EB5B
:1013F00017420CFB08F734BFA2EB0742B2EB0742DF
:1014000061EB17414FEA0C444FEA910706FB07FCDA
:101410004FEA1C4C0CFB0BF7B0EBC74072EB57329A
:1014200003FB0CF734BFA2EBC742B2EBC74261EB40
:1014300057310CFB0EF7B0EBC70072EB57720CFB89
:1014400008F734BFA2EBC702B2EBC70261EB5771DA
:10145000039F4FEA816141EA921104EBCC044FEA09
:10146000D1374FEA826206FB07FC42EA90124FEA4C
:1014700080604FEA1C4C0CFB0BF7D21B03FB0CF7F4
:1014800061EB07010CFB0EF7B0EB074072EB174264
:101490000CFB08F734BFA2EB0742B2EB074261EB4B
:1014A00017414FEA8C554FEA910704EB9C2406FB49
:1014B00007FC4FEA1C4C0CFB0BF7B0EBC74072EB80
:1014C000573203FB0CF734BFA2EBC742B2EBC74263
:1014D00061EB57310CFB0EF7B0EBC70072EB5772A4
:1014E0000CFB08F734BFA2EBC702B2EBC70261EBFB
:1014F000577115EB4C254FEA816141EA92114FEA91
:1015000082624FEAD13742EA901206FB07FC44F1AF
:1015100000044FEA80604FEA1C4C0CFB0BF7D21B17
:1015200003FB0CF761EB07010CFB0EF7B0EB074078
:1015300072EB17420CFB08F734BFA2EB0742B2EB89
:10154000074261EB174115EB1C154FEA813141EA67
:1015500092414FEA823242EA90424FEA80304FEAAB
:101560000C7644F1000448EA03434EEA0B484FF07E
:10157000000EB2EB080C71EB030724BF624639463C
:101580004EEB0E0E4FF0000B0018524149414BEB51
:101590000B0BB2EB080C71EB03077BF1000B24BFC4
:1015A000624639464EEB0E0E4FF0000B00185241CA
:1015B00049414BEB0B0BB2EB080C71EB03077BF1D2
:1015C000000B24BF624639464EEB0E0E51EA02076D
:1015D00018BF46F0010616EB0E7655F1000254F1E5
:1015E000000103D5BDE88901BDE80088BDE8890197
:1015F000BDE80048B619524141EB0101A3F10103D6
:10160000704780807F7E7D7C7B7A7978777676756F
:101610007473727171706F6E6E6D6C6C6B6A6A69E7
:101620006868676666656464636362616160605F81
:101630005F5E5E5D5D5C5C5B5B5A5A5959585857FA
:101640005756565555555454535352525251515062
:1016500050504F4F4F4E4E4D4D4D4C4C4C4B4B4BB5
:101660004A4A4A49494948484847474747464646FB
:101670004545454444444443434343424242424136
:101680004141002B9C4630D477002BD01CB54FEA4B
:10169000370703B44FF010004FF01001BAF1000FFC
:1016A00006D0BCF1000FDCBF40F0080040F008019C
:1016B0004FF000000FBCBDE810400BF1010BBBF177
:1016C000010F08BF5FEA170722BF12F1010211F1F3
:1016D00001014FF0004143F1000300F0004043EAF4
:1016E00000007047F9D35708D0E746EA064613F1E1
:1016F000400F4FEA16461FDD13F1200FDFBF1643E0
:101700000A46002120335B42BED0C3F1200746EADF
:10171000064602FA07F74FEA164646EA0706C3F1FD
:10172000200722FA03F201FA07F721FA03F14FF03A
:10173000000342EA0702A7E746EA020646EA06462F
:101740004FEA164646EA0106BCBF46EA0646360C94
:101750004FF000034FF000024FF0000194E72DE935
:10176000804C9A46934670B491E8380007C831EA35
:10177000400C48BF34EA430C03D5FFF7E6FDFFF702
:1017800080FFF0BCBDE8008C2DE9804C9A46934662
:1017900070B491E8380007C810F0804F08BF13F00C
:1017A000804F03D100F005F8FFF76BFFF0BCBDE8F8
:1017B000008C20F07F4780EA030023F07F4C07EB8A
:1017C0000C03A3F57C5300F00040A3F1FE0392F05C
:1017D000000F00F0B38095F0000F00F077802DE946
:1017E00001494FEA11404FEA144621EA004800FB44
:1017F00006FC24EA064708FB06F607FB08F800FB90
:1018000007F718EB06484CEB164C4FEA124B18EB57
:1018100007484FEA15464CEB174022EA0B4E0BFBEC
:1018200006FC25EA06470EFB06F607FB0EFE0BFB41
:1018300007F71EEB064E4CEB164C4FF000061EEB66
:10184000074E4CEB174B18EB0B0840F1000018EB60
:101850000E0B58EB000840F100008F1A4FF000010A
:101860003CBFC943661B14BFB5EB040C00213CBF51
:10187000C943F61B4FEA17444EEA8E0E27EA044589
:101880004FEA1C4704FB07622CEA074C05FB07F7ED
:101890000CFB05F604FB0CFC16EB074642EB17426B
:1018A00016EB0C4642EB1C421BEB060658EB020201
:1018B000414146EA9E0601D5BDE80189B61952416B
:1018C00041EB0101A3F10103BDE801894FEA144591
:1018D0004FEA114724EA054621EA074C05FB07F4C5
:1018E00006FB07F70CFB06F105FB0CFC11EB0741AF
:1018F00044EB17444FEA124711EB0C4144EB1C44F4
:1019000022EA074C05FB07F206FB07F70CFB06F67D
:1019100005FB0CFC16EB074642EB174216EB0C4698
:1019200042EB1C456A1854F1000148BF7047B619D4
:10193000524141EB0101A3F10103704795F0000F03
:1019400037D04FEA11424FEA144721EA024624EA0F
:10195000074C02FB07F106FB07F70CFB06F402FB42
:101960000CFC14EB074441EB17414FEA154714EB0D
:101970000C4441EB1C4125EA074C02FB07F506FB32
:1019800007F70CFB06F602FB0CFC16EB074645EBD3
:10199000174516EB0C4645EB1C42121951F100019C
:1019A00048BF7047B619524141EB0101A3F1010351
:1019B00070474FEA14454FEA114724EA054621EAE9
:1019C000074C05FB07F106FB07F70CFB06F24FF08F
:1019D000000605FB0CFC12EB074241EB174112EB32
:1019E0000C4251EB1C4148BF7047921841EB01017A
:1019F000A3F10103704710B50346826801E0134666
:101A00009268002AFBD1996000248C6010BD2DE9FA
:101A1000F04106460C460027002507E056F8251041
:101A2000384600F0D3FC0746681CC5B2A542F5D382
:101A3000204600F0FBFD05462946384600F034FDFF
:101A4000BDE8F08101490860704700001C000020DB
:101A50002DE9F04105460F462E46AC6805E020789A
:101A6000B84200D103E02646A468002CF7D100BF9D
:101A700014B905A0FEF788FDA068B0602046FEF707
:101A80005CFD0024BDE8F08143616E206E6F742020
:101A900066696E642073656E736F722E0D0A0000A6
:101AA00010B50C20FEF71AFD04460CB9002010BD3D
:101AB00006480078207005480078401E03490870E9
:101AC00003486060282060702046F0E71000002086
:101AD0000000A44170B500F069F80546642D01D2FC
:101AE00000240DE0642D03D3C82D01D2012407E0AA
:101AF000C82D04D3B5F5967F01D2022400E003245B
:101B0000214602A0FEF740FD204670BD434F322023
:101B10004C6576656C3A2025640A00000146282051
:101B200070471CB500F045F80190BDF804000A2884
:101B300002D20020009017E0BDF804000A2806D366
:101B4000BDF80400232802D2012000900CE0BDF86B
:101B50000400232806D3BDF804004B2802D201203C
:101B6000009001E0032000909DF800001CBD0000E3
:101B700070B505460B480078401C0A4908700846B5
:101B80000078052190FBF1F201FB12000549087075
:101B90000846007800F04AFD0446034900F016FCB0
:101BA00070BD0000180000200000A0414FF4FA7042
:101BB00070471420704710B504464CB1208800F0DF
:101BC0000BF860602088FFF7A9FF2072002010BD8D
:101BD0004FF0FF30FBE7000070B586B006461421D9
:101BE00001A8FEF76EFE002407E03046FFF7C0FFB5
:101BF00001A941F82400601CC4B2052CF5DB0521C5
:101C000001A8FFF704FF05460749284600F022FD1A
:101C100000D2054D0549284600F09BFD00D2034D3A
:101C2000284606B070BD00000000A04000005C42E5
:101C300070B5044602210120A0470546294602A0AE
:101C4000FEF7A2FC70BD000073756D203D20256479
:101C50000D0A000010B50C20FEF740FC04460CB93C
:101C6000002010BD00202070A0602046F9E7000091
:101C70002DE9F0410446207801280DD165682868D7
:101C800000F078FB064632460B4604A0FEF77CFCCB
:101C9000286800F04FF800BFBDE8F0812A74656D38
:101CA00070436F66203D202566000000F8B50546AC
:101CB000AC680CE0606800F05DFB06460B4660789F
:101CC00000902178324603A0FEF75EFCA468002C49
:101CD000F0D1F8BD53656E736F722069643A256464
:101CE0002C74656D70203D20252E31662C68756D35
:101CF00069203D2025642E0D0A00000010B5044621
:101D0000012020700420A060A068FEF7E7FB60605F
:101D1000606810B94FF0FF3010BD9A2061680870FC
:101D2000992061684870616888703F206168C87058
:101D30000020F1E70149086070470000140000200E
:101D400002465018704700000348044908600448E0
:101D500004490860704700000000000008ED00E042
:101D600040787D012000002000B585B0142205A137
:101D70006846FEF774FD694607A0FEF705FC05B04E
:101D800000BD000053465F32303234303933305FAB
:101D9000302E30310000000053465F566572736983
:101DA0006F6E3A25730D0A0010B50C20FEF796FBF6
:101DB000044604B910BD2046FFF7A0FF20B120461D
:101DC000FEF7BBFB0024F5E7204607490968884772
:101DD0006068FEF7B2FB002060602046FEF7ADFBB6
:101DE000002400BFE6E700001C000020490050EA84
:101DF000C12018BF04204A0D18BF40F0010040F276
:101E0000FF72B2EB515F08BF40F00200012808BF2B
:101E10000520704730380A2801D201207047002081
:101E2000704700BFFEE7000010B504460249204697
:101E300000F008F810BD00000000002001464FF03F
:101E4000FF30704710B5024610460B4B1B6803F07D
:101E500001037BB1084B803B1B6803F001034BB1CE
:101E600000E000BF4FF060431B68002BF9D04FF03B
:101E70006044207000BF10BD800E00E070B50446C5
:101E800004210320A0470546294602A0FEF77CFB5B
:101E900070BD000073756D203D2025640D0A0000A3
:101EA0002DE9F04F95B0FFF7D5FE9A490860084636
:101EB000006820B94FF0FF3015B0BDE8F08F002763
:101EC0000CE0FFF7EDFD064606B905E03146914806
:101ED0000068FFF790FD00BF781CC7B2032FF0DB4E
:101EE0008C480068FFF7E2FE64218A480068FFF72B
:101EF000AFFD622187480068FFF7AAFD85480068AA
:101F0000FFF7D4FE00270CE0FFF7CAFD064606B92E
:101F100005E031467F480068FFF76DFD00BF781C83
:101F2000C7B2032FF0DB7B480068FFF7BFFE0FF25C
:101F3000E81A514614A800F0F5F9012214A97CA072
:101F4000FEF722FB042210217EA0FEF71DFB41F2CA
:101F50003420ADF8400010A8FFF72DFEFFF7BAFDC2
:101F60008DF84C00FFF7DDFD8DF84D00119800F065
:101F700001FA07460B469DF848000090BDF8401056
:101F80003A467EA0FEF700FB85A103C9CDE90E010C
:101F900000200D90BDF84000FFF71EFE0D900D983B
:101FA00000F0E8F907463A460B467FA0FEF7ECFA48
:101FB0000EA982A0FEF7E8FA00270BE00EA8C05D8C
:101FC00000900EA8C2193B46394681A0FEF7DCFA04
:101FD000781CC7B2052FF1DB002707E00EA8C25D11
:101FE000394685A0FEF7D0FA781CC7B2052FF5DB7D
:101FF0000EAD294685A0FEF7C7FA002707E0EB5D86
:10200000EA19394685A0FEF7BFFA781CC7B2052F3A
:10201000F5DB002707E0EB5DEA19394687A0FEF7FC
:10202000B3FA781CC7B2052FF5DB8C480C900CACCA
:1020300021788BA0FEF7A8FA641C217888A0FEF70F
:10204000A3FA641C217886A0FEF79EFA641C21780E
:1020500083A0FEF799FA85A000680B900DF12C0B78
:10206000DBF8000000F086F907463A460B4680A0F0
:10207000FEF78AFA8148FFF7DBFD8048FFF7FEFE96
:102080007F48FFF7DFFCFFF78FFE0420FEF726FAFC
:1020900081467C48C9F800004846FEF74EFA0C21FC
:1020A00079A0FEF771FA0AAB09AA08A97DA0FEF78C
:1020B0006BFA0520FEF712FA0990012009990870C1
:1020C0000220099948700320099988700420099911
:1020D000C87005200999087118227EA102A8FEF790
:1020E000BEFB02A8FEF79CFB074639467FA0FEF721
:1020F0004BFA4D208DF808009DF80A309DF8092014
:102100009DF808107DA0FEF73FFAFFF72DFE002096
:10211000D2E600000C0000206D616C6C6F632066DD
:102120006F72206D206661696C65642E000000008E
:1021300064657374203D2025732C737263203D20E9
:1021400025640A0073697A656F6628616972517542
:10215000616C6461746129203D2025642C73697A67
:10216000656F66282A6169725175616C646174617A
:102170003129203D2025640D0A0000004944203DFE
:102180002025642C74656D70203D2025302E31662D
:102190002C68756D69203D2025640D0A0000000043
:1021A000030201050400000067657454656D5F66F5
:1021B0006C74203D20252E31660D0A00266C5F626E
:1021C0007566666572203D2025700D0A00000000CE
:1021D000266C5F6275666665725B25645D203D20D6
:1021E00025702C6C5F6275666665725B25645D2088
:1021F0003D2025640D0A00006C5F6275666665729D
:102200005B25645D203D2025640D0A006C5F7074C1
:1022100072203D2025700D0A000000006A203D203C
:1022200025642C266C5F707472203D2025702C6C08
:102230005F707472203D2025640D0A006B203D20E4
:1022400025642C266C5F707472203D2025702C6CE8
:102250005F707472203D2025640D0A009A99993FA1
:102260002A70203D202523782E0A00009A99993F54
:102270002A73756D203D2025660A0000411D00006F
:10228000711C00007856341273697A656F662843B2
:102290006667506172616D3129203D2025640D0A09
:1022A00000000000267072616D54797065203D2039
:1022B000307825702C2676616C7565203D2030784D
:1022C00025702C2673697A65203D20307825700DA5
:1022D0000A0000006D616C6C6F6320666F72206D88
:1022E000206661696C6564210D0A00007374726C6C
:1022F000656E203D2025640D0A000000666D745B4C
:10230000305D203D2025632C666D745B315D203D82
:102310002025632C666D745B325D203D2025630DA6
:102320000A0000000A46002102E0535C4354491CA5
:10233000535C002BF9D143547047000010B50029BD
:102340000AD00878002807D005487844FEF732FF05
:10235000002801D0002010BD0248784410BD0000C4
:10236000460600003E0600000808A0F500114FEAEE
:102370003101704743004FEAD30C4FEA3C0C434015
:102380001FBF40070CF1605113F0FE4F70471CF067
:10239000006F03D100200CF0004170470CF00043A7
:1023A00043EA507010B540EACC0000F087F900BF56
:1023B000000000924FEA0001FFF7D6BF4FF0004146
:1023C0004FF00000A1F500217047000090EA010FD6
:1023D00048BF81F0004100F1F481421A3CBF801AED
:1023E00089184FEAD0524FF07F4C1CEA410FA2EB04
:1023F000D15318BF9CEA026F00F03B804FF0004CB5
:102400004CEA00204CEA012121FA03FC10EB0C0CF1
:102410001ED202F1FF325FEA1C2040EBC25038BFEF
:1024200070471CF07F0F4FEA400C18BFBCF17F4F84
:1024300038BF7047C3F12003994008BF20F0010066
:10244000BCF17F4F38BF7047A0F1C04000F07CB9AD
:102450004FEA3C00000A40EBC25028BF1CF0FF0FBF
:102460004FEA400CE6D018BFBCF17F4F38BF704731
:10247000EAE79CEA026F05D010EA5C0F08BF00F0A3
:102480000040704710B500F019F900BF64FBBE3E74
:10249000401058BFC0F14040491058BFC1F1404101
:1024A0008142EFF3008070474FF47F0C1CEAD0129A
:1024B0001EBF1CEAD11392EA0C0F93EA0C0F00F036
:1024C000858090EA010F48BF42F4807240F4000C0E
:1024D00041F400002CF07F4120F07F4000B58142A4
:1024E000A2EB03020FF2081CACEB504EC0F100004F
:1024F0009EF800E04FEA4E0E00FB0EFC38BF49008C
:102500004FEA2C1C02F5FA020CFB0EF34FEACE1E2A
:102510004FEA112C4FEAC1210EEB635E42EB2242DF
:102520000EFB0CFC4FEA1C5300FB03114FEA112C6D
:102530004FEA01310EFB0CFC4FEADC4C00FB0C11A6
:10254000C14228BF09184CEB03335DF804EB10EBD4
:10255000410143EBC250B2F57C0F38BF704729D51B
:1025600012F0F00F1CBF00F1C04000F000407047B7
:10257000008182838485868788898B8C8D8E8F915C
:102580009293959697999A9C9D9FA0A2A3A5A7A880
:10259000AAACAEB0B2B3B5B7B9BCBEC0C2C5C7C9AC
:1025A000CCCED1D4D7D9DCDFE2E6E9ECF0F3F7FA10
:1025B000FE0000004FEA400C0CF1807CBCF17E4F25
:1025C00028BF7047B0F1C04000F0BEB890EA010FDC
:1025D0000CEAD11348BF42F48072624538BF6345AC
:1025E00007D213F47F0F16D080EA010000F00040FC
:1025F000704710B500F062F8097EFC3E00F005B8A7
:1026000080EA010000F00040704780EA010000F01D
:10261000004000F099B812F47F0F04BF02487047E1
:1026200080EA010000F090B80000C07FB0FA80F3AB
:1026300010FA03F2C3F19D030AD0D90501EB122071
:10264000530638BF704700F1010008BF20F00100B9
:102650007047000050EA010C00F113801CF5000FD8
:1026600058BFBCF5000F01D48842704707D710F55A
:10267000000F58BF11F5000F15D4884270478942EA
:1026800070471CF5000F04D5BCF5000FF7D581424B
:1026900070474FF0807C1CEB400F38BF1CEB410FA4
:1026A00001D28142704710B500F008F89224490029
:1026B0004FF000504FF08051FFF7EABE0EF1020ECE
:1026C0002EF0030E5EF8044B244204D44FEA41027C
:1026D000B2F17F4F11D84FEA4003B3F17F4F0CD8CE
:1026E0000ED14FEAD07CB2F17F4F0CEB4C0C0CF1C9
:1026F000020C08BF4CEBD17C04E04FF0080C01E069
:102700004FEAD17C0CEB4C0324FA03F404F00704E9
:10271000B4F1040C06D20EEB840CBDE810404CF072
:10272000010C6047DFE80CF0070802024FF00040A0
:10273000A0F5800010BD0846420018BFD2F180729B
:1027400088BF00F0004010BDFF2141EAD050C00515
:10275000704751EA000C00F113801CF5000F58BFC0
:10276000BCF5000F01D48142704707D711F5000F67
:1027700058BF10F5000F15D4814270478942704749
:102780001CF5000F04D5BCF5000FF7D58842704743
:102790004FF0807C1CEB410F38BF1CEB400F01D287
:1027A0008842704780EA010081EA000180EA010066
:1027B000FFF779BF90EA010F48BF81F000413FF574
:1027C0000CAE421A04D882F00042A0EB0200114481
:1027D0004FEAD0524FF07F4C1CEA410FA2EBD1538D
:1027E00018BF9CEA026F4AD04FF0004C4CEA002020
:1027F0004CEA012121FA03FCB0EB0C0C0FD412F0CF
:10280000FE0F36D05FEA4C001DD5001240EBC250DF
:1028100038BF70471CF03F0F18BF70470BE0A2F1A4
:1028200001025FEA1C2040EBC25038BF70471CF029
:102830007F0F18BF7047C3F12003994014BF401E9B
:1028400020F00100704780084FEA122308BF70474C
:10285000B0FA80FCA2EB0C02CCF1280C60FA0CF070
:1028600093EA122F04BF00EBC25070474FEAC370C7
:102870007047130A5FEADC1008BF7047F6E79CEA6E
:10288000026F04D010EA5C0F08BF0020704710B53B
:10289000FFF714FF40DFF63E81F000407047FEF77F
:1028A000BFB9303132333435363738394142434499
:1028B00045464030580030313233343536373839B8
:1028C00061626364656640307800040000080000BF
:1028D00000000000000200010000100002400000A3
:1028E000000000A00000000005400000000000C83B
:1028F000000000000C4000000000409C00000000B0
:10290000194000000020BCBE000000003440000060
:10291000BFC91B8E00000004B5400000504BCFD053
:102920006607E2CF010000006C4100003E8251AA20
:10293000DFEEA73401000000D9420000DCB5A0E2C0
:102940003A301F97FFFFFFFFB4450000FD25A0C8E8
:10295000E9A3C14FFFFFFFFFFF3F00000000008021
:1029600000000000FF3F00000000008000000000A9
:10297000AC2900000000002024000000FC0300003F
:10298000D02900002400002064100000180400007A
:102990001C00000043000000F8FFFFFF0C000000D7
:1029A0000E0000000F0000002E00000000000000DC
:1029B00000000000A55AA55A0000000064000000B5
:1029C0000000803F000000000000000040787D0112
:04000005000003C133
:00000001FF
