:020000040000FA
:10000000700400207D0400008704000085040000C7
:10001000890400008B0400008D0400000000000033
:100020000000000000000000000000008F0400003D
:1000300091040000000000009304000095040000FB
:1000400097040000990400009B0400009D04000038
:100050009F040000A1040000A3040000A504000008
:10006000A7040000A9040000000000000000000038
:100070000000000000000000000000000000000080
:100080000000000000000000000000000000000070
:100090000000000000000000000000000000000060
:1000A0000000000000000000000000000000000050
:1003C00000F002F800F04AF80AA090E8000C82441D
:1003D0008344AAF10107DA4501D100F03FF8AFF2FA
:1003E000090EBAE80F0013F0010F18BFFB1A43F013
:1003F000010318472C1800004C180000103A24BFC5
:1004000078C878C1FAD8520724BF30C830C144BF79
:1004100004680C60704700000023002400250026BB
:10042000103A28BF78C1FBD8520728BF30C148BF57
:100430000B607047662901F0A683642900F07A807A
:10044000002070471FB500F02FFB040000200021A2
:1004500001F014F9E0601FBD10B510BDDFF80CD03D
:10046000FFF7F0FF01F08CF800F032FC7004002080
:1004700003B4FFF7F1FF03BC01F060F80B488047BD
:100480000B480047FEE7FEE7FEE7FEE7FEE7FEE774
:10049000FEE7FEE7FEE7FEE7FEE7FEE7FEE7FEE734
:1004A000FEE7FEE7FEE7FEE7FEE70000F5140000CA
:1004B000C10300000FB4044910B503AA029800F06C
:1004C000E1FA10BC5DF814FB000000202DE9F041BA
:1004D0000E460446002020622046E168884730B37B
:1004E000252805D0D4E901219047206A401CF2E775
:1004F000E168204600278847050018D0A5F1410093
:10050000192802D820354FF4006732462946204684
:100510002760FFF78FFF40B1012804D0F61D26F0B9
:1005200007060836D8E7361DD6E72846DAE7206AF8
:10053000BDE8F0812DE9F0410646002410687529D8
:10054000314616A510D0AFF30080002802DA4042F1
:1005500013A507E031688A0701D512A502E0490713
:1005600004D511A5012401E0AFF3008000210A2287
:1005700006F1240709E0B0FBF2FCB0FBF2F302FB4A
:100580001C00303078541846491C0028F3D123460B
:100590002A463046BDE8F04100F00BB800000000EC
:1005A0002D0000002B000000200000007047704765
:1005B00070472DE9F0470D4699469246044600F1F2
:1005C00024080168880604D5E06921F01001216043
:1005D00000E00120A84201DD471B00E00027A169DF
:1005E0007A1902EB0900081AA0612078C00602D42B
:1005F0002046AFF30080002608E0D4E901211AF874
:1006000006009047206A401C761C20624E45F4DBB1
:100610002078C0060AD52046AFF3008006E0D4E972
:10062000012130209047206A401C2062381EA7F12B
:100630000107F4DC07E0D4E9012118F80500904730
:10064000206A401C2062281EA5F10105F3DC20462B
:10065000AFF300802078000602D50220BDE8F087C5
:100660000120FBE770472DE9FF4F0C461E464FF077
:10067000FF378BB0D2E90001DDF860800A908A462E
:10068000C1F30A5505B93D46002108464FF0000068
:10069000BAF1000F00F4400005DA00EB80004FF4DF
:1006A000400101EA50004FEA9059B9F1010F00DD15
:1006B000B9460A9850EA4A000ED044F61050A5F206
:1006C000FF3545432F14B8F1000F1ED07542291E87
:1006D0001EDDC9F100021CE0B8F1010F4FF000006F
:1006E00001D0302103E0F24305E02154401CB04228
:1006F000FBDB30460022002121540B99C1F8088011
:10070000C1E900200FB0BDE8F08FBD1B6D1CDEE716
:100710004A4600DA694206A800F068FA06AB93E898
:10072000070003AB83E8070050460A9900F01AFB64
:100730008DE80700A0F500501F3800900398002DA9
:100740000ADD42F21F014A460844002303A9039030
:10075000684600F083FD09E0A0F500504A461F38C6
:10076000002303A90390684600F08DFD8DE8070083
:100770000004000C03D04FF0FF30410800E01046A9
:10078000B8F1000F03D00022009215461EE0751E3E
:1007900005D400F08DF9303262556D1EF9D5B3469F
:1007A0000122084302D000227F1C04E02078302878
:1007B00001D100227F1E002A099784D01DE0112D4F
:1007C00007DA00F075F9303262556D1C50EA01020B
:1007D000F5D1084302D00098C8B10EE00021681E90
:1007E00005E0235C625C63542254401E491C814234
:1007F000F7DBAB46A81B401E0990002004F80B0055
:100800000B98099AC0F80880C0E9002B7AE71126F6
:100810004FF0000857E72DE9F04F88460446D21DF7
:1008200022F0070191B0D1E90001CDE90A0100F001
:1008300071FE02460B98C00F01D02D2007E0206802
:10084000810701D52B2002E0202101EAC000032A04
:10085000099001D0072A05DB03464146204600F0F7
:1008600085F90BE12078800601D5E06900E00620DB
:10087000B8F1650F814606D0B8F1660F18D0B8F10F
:10088000670F70D131E00020B9F1110F009001DB4A
:10089000112301E009F101030AAA01A90CA8FFF73D
:1008A000E2FEDDE90C70002609F10105834647E010
:1008B00001204B4600904FF000470AAA01A90CA85E
:1008C000FFF7D1FEDDE90DB00C995D46002610B9A9
:1008D00009F101000D18B9EB050003D4C0F1FF3692
:1008E00009F10105A5EB09002BE0B9F1010F01DACF
:1008F0004FF001090020B9F1110F0090484601DDC9
:10090000112300E003460AAA01A90CA8FFF7ABFED9
:10091000DDE90C704D4600268346207800070AD496
:10092000AB4500DA5D4601A8012D04DD411911F83F
:10093000011C302907D04F4502DA17F1040F04DA01
:10094000012082460FE06D1EEEE7002F02DCED1B5A
:100950003E4403E0781CA84200DD7D1CB81B00F17A
:10096000010A4FF000472078000703D4AA4501DBB5
:100970004FF0FF3A0021B7F1004F0DF143088DF819
:10098000431024D002202B23002F01DA7F422D2395
:100990000A21021EA0F1010000DC5FB197FBF1FC0F
:1009A00097FBF1F201FB1C7C17460CF1300C08F8A8
:1009B00001CDEEE7A8F1010003702188090501D5FA
:1009C000452100E06521A0F1010800F8011C09980B
:1009D0000FA9A1EB0807FF1D00B10120411901EB90
:1009E000EA70A1693844081A401EA0612078C00648
:1009F00002D42046AFF30080099828B1D4E9012140
:100A00009047206A401C20622078C00622D52046EC
:100A1000AFF300801EE0002E04DBB34502DD01A829
:100A2000805D00E03020D4E901219047206A401C1D
:100A30002062761CAAF101005FEA000A0AD100F0E8
:100A400033F8C0680168405CD4E901219047206A0E
:100A5000401C2062281EA5F10105DCDC07E0D4E97A
:100A6000012118F8010B9047206A401C2062381EB3
:100A7000A7F10107F3DC2046AFF30080032011B09B
:100A800041E60000074B70B50D467B4400F05BF873
:100A90000446284600F054FD10B14FF0FF3070BD01
:100AA000204670BDBB0A000000487047300000209F
:100AB00030B5B0F10A024FEA900E71F100034EEA30
:100AC000817EB0EB0E0061EB91014FEA101E4EEA01
:100AD000017E10EB0E0041EB11114FEA102E4EEA91
:100AE000016E10EB0E0041EB11214FEA104E4EEA61
:100AF000014E10EB0E0041EB1141401841F1000195
:100B00004FEAD00040EA41704FEAD10110EB800576
:100B10004FEA810444EA907444EB01046D1944EBFC
:100B20000404521BA3414FF0000348BF0A3200D512
:100B300030BD401C41F1000130BD000001694A1C7C
:100B400002610878704700B58FB0CDE9013100210E
:100B5000059105497944CDE9031011466846FFF730
:100B6000B5FC0FB000BD0000E5FFFFFF2DE9F0412F
:100B70001F46044603260168072A01F4006004DBCF
:100B800008B116A505E016A503E008B115A500E01B
:100B900015A521F010002060A069C01EA0610FB152
:100BA000401EA0612046AFF300804FB1D4E901217F
:100BB00038469047206A401C2062C01C206206E034
:100BC000206AFAE7D4E9012115F8010B9047761E57
:100BD000F8D22046AFF30080BDE8F0814E414E00D0
:100BE0006E616E00494E4600696E66002DE9F04761
:100BF000814616468AB0354878440DC88DE80D0008
:100C000032487844801C03AC0DC884E80D0041F6DE
:100C10009B300844372190FBF1F290FBF1F5A5F1F0
:100C2000800501FB12041B3C02D56442012000E058
:100C30000020DFF898A080460027FA44AAF1BE0AF7
:100C40000EE0E0070AD03246684607EB4701012371
:100C50000AEB810100F017FB8DE8070064107F1C90
:100C6000002CEED1194F7F44AE3F19E0E80715D0B4
:100C700007EB04100DF1180A90E80E008AE80E0048
:100C8000C068F04201D1981908903246012306A9A4
:100C900003A800F0F8FA03AB83E807006D10641CAA
:100CA000002DE3D14FF0010332466946B8F1000F41
:100CB00003A802D000F0D2FA01E000F0E4FAC9E99A
:100CC0000001C9F808200AB0BDE8F0870C10000048
:100CD00010B50446AFF300802046BDE81040FFF792
:100CE000C7BB00004FF0013C50F8042B51F8043B07
:100CF0009A4221D1A2EB0C03934313EACC1317D1F0
:100D000050F8042B51F8043B9A4215D1A2EB0C0386
:100D1000934313EACC130BD150F8042B51F8043B46
:100D20009A4209D1A2EB0C03934313EACC13DBD014
:100D30004FF00000704700BFD01A01BAB1FA81F13C
:100D400001F0180122FA01F0CB40C1F12001DBB221
:100D5000C0B2C01A2CFA01F3D11A914311EAC3119F
:100D6000E6D170475FEA400C08BF91F0000F4FEAF0
:100D70008C234FEAC12243EA51514FEA1C5018BF5D
:100D800000F5F0404FEA300018BF41F000415FEA43
:100D90006C5C00F02980BCF1FF3F08BF40F0804050
:100DA0007047130C06BF12044FF0100C4FF0000CEC
:100DB000130E04BF12020CF1080C130F04BF120132
:100DC0000CF1040C930F04BF92000CF1020CD30F32
:100DD00004BF52000CF1010C11464FF00002A0F1CB
:100DE0001F00A0EB0C00704711F0004F08BF7047C8
:100DF00031F000413FF4D5AF0B0C06BF09044FF0B2
:100E0000100C4FF0000C0B0E04BF09020CF1080C83
:100E10000B0F04BF09010CF1040C8B0F04BF8900F8
:100E20000CF1020CCB0F04BF49000CF1010CCCF10A
:100E30002003A0EB0C0022FA03F302FA0CF241EAC1
:100E4000030100F10100704720F07F4C80EA0300AD
:100E500023F07F47ACEB070303F57C5300F0004021
:100E600003F1FF032DE980494FEA154B09B44FEA1E
:100E7000144325EA0B4E24EA03480FF2042606EB3E
:100E8000132749083E785FEA320203FB0667C7F57D
:100E9000000707FB06F64FEA54374FEAD64606F13D
:100EA000020607FB066CCCF1005C4FEA1C472CEAFB
:100EB000074C07FB06F40CFB06F504EB15464FEA5E
:100EC000961634BF00204FF000404FEAD13706FBA2
:100ED00007FC4FEA1C4C0CFB0BF7D21B03FB0CF777
:100EE00061EB07010CFB0EF7B0EB074072EB17420A
:100EF0000CFB08F734BFA2EB0742B2EB074261EBF1
:100F000017414FEA0C444FEA910706FB07FC4FEAF2
:100F10001C4C0CFB0BF7B0EBC74072EB573203FBDA
:100F20000CF734BFA2EBC742B2EBC74261EB5731BB
:100F30000CFB0EF7B0EBC70072EB57720CFB08F717
:100F400034BFA2EBC702B2EBC70261EB5771039F3C
:100F50004FEA816141EA921104EBCC044FEAD137A8
:100F60004FEA826206FB07FC42EA90124FEA806079
:100F70004FEA1C4C0CFB0BF7D21B03FB0CF761EB8D
:100F800007010CFB0EF7B0EB074072EB17420CFBAE
:100F900008F734BFA2EB0742B2EB074261EB1741FF
:100FA0004FEA8C554FEA910704EB9C2406FB07FCA3
:100FB0004FEA1C4C0CFB0BF7B0EBC74072EB5732FF
:100FC00003FB0CF734BFA2EBC742B2EBC74261EBA5
:100FD00057310CFB0EF7B0EBC70072EB57720CFBEE
:100FE00008F734BFA2EBC702B2EBC70261EB57713F
:100FF00015EB4C254FEA816141EA92114FEA82627A
:101000004FEAD13742EA901206FB07FC44F1000494
:101010004FEA80604FEA1C4C0CFB0BF7D21B03FB22
:101020000CF761EB07010CFB0EF7B0EB074072EB1E
:1010300017420CFB08F734BFA2EB0742B2EB0742A2
:1010400061EB174115EB1C154FEA813141EA9241E2
:101050004FEA823242EA90424FEA80304FEA0C7601
:1010600044F1000448EA03434EEA0B484FF0000EF7
:10107000B2EB080C71EB030724BF624639464EEB16
:101080000E0E4FF0000B0018524149414BEB0B0B79
:10109000B2EB080C71EB03077BF1000B24BF624637
:1010A00039464EEB0E0E4FF0000B001852414941ED
:1010B0004BEB0B0BB2EB080C71EB03077BF1000B56
:1010C00024BF624639464EEB0E0E51EA020718BFA6
:1010D00046F0010616EB0E7655F1000254F10001C0
:1010E00003D5BDE88901BDE80088BDE88901BDE8F8
:1010F0000048B619524141EB0101A3F101037047C9
:1011000080807F7E7D7C7B7A797877767675747344
:10111000727171706F6E6E6D6C6C6B6A6A69686803
:10112000676666656464636362616160605F5F5E99
:101130005E5D5D5C5C5B5B5A5A595958585757560F
:101140005655555554545353525252515150505074
:101150004F4F4F4E4E4D4D4D4C4C4C4B4B4B4A4AC6
:101160004A4949494848484747474746464645450A
:101170004544444444434343434242424241414143
:10118000002B9C4630D477002BD01CB54FEA370794
:1011900003B44FF010004FF01001BAF1000F06D069
:1011A000BCF1000FDCBF40F0080040F008014FF038
:1011B00000000FBCBDE810400BF1010BBBF1010FAB
:1011C00008BF5FEA170722BF12F1010211F1010106
:1011D0004FF0004143F1000300F0004043EA0000FB
:1011E0007047F9D35708D0E746EA064613F1400F97
:1011F0004FEA16461FDD13F1200FDFBF16430A46E4
:10120000002120335B42BED0C3F1200746EA0646E8
:1012100002FA07F74FEA164646EA0706C3F1200727
:1012200022FA03F201FA07F721FA03F14FF0000363
:1012300042EA0702A7E746EA020646EA06464FEAFE
:10124000164646EA0106BCBF46EA0646360C4FF093
:1012500000034FF000024FF0000194E72DE9804CAD
:101260009A46934670B491E8380007C831EA400CBA
:1012700048BF34EA430C03D5FFF7E6FDFFF780FFD4
:10128000F0BCBDE8008C2DE9804C9A46934670B4C2
:1012900091E8380007C810F0804F08BF13F0804F66
:1012A00003D100F005F8FFF76BFFF0BCBDE8008C40
:1012B00020F07F4780EA030023F07F4C07EB0C030C
:1012C000A3F57C5300F00040A3F1FE0392F0000F61
:1012D00000F0B38095F0000F00F077802DE9014910
:1012E0004FEA11404FEA144621EA004800FB06FC91
:1012F00024EA064708FB06F607FB08F800FB07F799
:1013000018EB06484CEB164C4FEA124B18EB07480B
:101310004FEA15464CEB174022EA0B4E0BFB06FC3E
:1013200025EA06470EFB06F607FB0EFE0BFB07F74A
:101330001EEB064E4CEB164C4FF000061EEB074E14
:101340004CEB174B18EB0B0840F1000018EB0E0BA1
:1013500058EB000840F100008F1A4FF000013CBF2D
:10136000C943661B14BFB5EB040C00213CBFC94345
:10137000F61B4FEA17444EEA8E0E27EA04454FEA61
:101380001C4704FB07622CEA074C05FB07F70CFB24
:1013900005F604FB0CFC16EB074642EB174216EB76
:1013A0000C4642EB1C421BEB060658EB0202414185
:1013B00046EA9E0601D5BDE80189B619524141EBC6
:1013C0000101A3F10103BDE801894FEA14454FEA89
:1013D000114724EA054621EA074C05FB07F406FB02
:1013E00007F70CFB06F105FB0CFC11EB074144EB86
:1013F00017444FEA124711EB0C4144EB1C4422EA1C
:10140000074C05FB07F206FB07F70CFB06F605FB8E
:101410000CFC16EB074642EB174216EB0C4642EB70
:101420001C456A1854F1000148BF7047B619524173
:1014300041EB0101A3F10103704795F0000F37D094
:101440004FEA11424FEA144721EA024624EA074CC8
:1014500002FB07F106FB07F70CFB06F402FB0CFC92
:1014600014EB074441EB17414FEA154714EB0C44CA
:1014700041EB1C4125EA074C02FB07F506FB07F789
:101480000CFB06F602FB0CFC16EB074645EB17457A
:1014900016EB0C4645EB1C42121951F1000148BFF6
:1014A0007047B619524141EB0101A3F101037047A6
:1014B0004FEA14454FEA114724EA054621EA074C52
:1014C00005FB07F106FB07F70CFB06F24FF00006E1
:1014D00005FB0CFC12EB074241EB174112EB0C42EF
:1014E00051EB1C4148BF7047921841EB0101A3F139
:1014F0000103704703480449086004480449086030
:10150000704700000000000008ED00E040787D0119
:101510000C000020490050EAC12018BF04204A0DE9
:1015200018BF40F0010040F2FF72B2EB515F08BFFC
:1015300040F00200012808BF0520704700BFFEE709
:1015400001464FF0FF30704710B5024610460B4B76
:101550001B6803F001037BB1084B803B1B6803F061
:1015600001034BB100E000BF4FF060431B68002B4C
:10157000F9D04FF06044207000BF10BD800E00E035
:101580002DE9F04F87B0012404257F2005908020AD
:101590000490642003909DF8080001909DF80410C9
:1015A00022A0FEF787FF284600F014FA07462046DF
:1015B00000F010FA8046394600F016F9064630462B
:1015C00000F078F807463A460B461BA0FEF772FF7C
:1015D000DFF870B0DFF87090DFF870A05146484631
:1015E00000F094F800905146484600F08FF8074606
:1015F000009900F0BBF903D1042115A0FEF75AFFB2
:10160000214618A0FEF756FF294619A0FEF752FF03
:101610009DF9181016A0FEF74DFF9DF9141014A0A7
:10162000FEF748FF002007B0BDE8F08F7A203D208C
:1016300025640D0A000000006D5F63203D202566D3
:101640000D0A00000000A44177BE8F3FF628AC3F92
:1016500073697A656F662874656D7029203D202551
:10166000640D0A0061203D2025640D0A0000000081
:1016700062203D2025640D0A0000000010B50029FD
:101680000AD00878002807D005487844FFF72AFBDD
:10169000002801D0002010BD0248784410BD000091
:1016A000B6050000AE0500000808A0F500114FEADD
:1016B0003101704743004FEAD30C4FEA3C0C4340E2
:1016C0001FBF40070CF1605113F0FE4F70471CF034
:1016D000006F03D100200CF0004170470CF0004374
:1016E00043EA507010B540EACC0000F08BF900BF1F
:1016F000000000924FEA0001FFF7D6BF4FF0004113
:101700004FF00000A1F500217047000090EA010FA2
:1017100048BF81F0004100F1C881421A3CBF801AE5
:1017200089184FEAD0524FF07F4C1CEA410FA2EBD0
:10173000D15318BF9CEA026F00F03B804FF0004C81
:101740004CEA00204CEA012121FA03FC10EB0C0CBE
:101750001ED202F1FF325FEA1C2040EBC25038BFBC
:1017600070471CF07F0F4FEA400C18BFBCF17F4F51
:1017700038BF7047C3F12003994008BF20F0010033
:10178000BCF17F4F38BF7047A0F1C04000F080B976
:101790004FEA3C00000A40EBC25028BF1CF0FF0F8C
:1017A0004FEA400CE6D018BFBCF17F4F38BF7047FE
:1017B000EAE79CEA026F05D010EA5C0F08BF00F070
:1017C0000040704710B500F01DF900BF64FBBE3E3D
:1017D000401058BFC0F14040491058BFC1F14041CE
:1017E0008142EFF3008070474FF47F0C1CEAD01267
:1017F0001EBF1CEAD11392EA0C0F93EA0C0F00F003
:10180000858090EA010F48BF42F4807240F4000CDA
:1018100041F400002CF07F4120F07F4000B5814270
:10182000A2EB03020FF2081CACEB504EC0F100001B
:101830009EF800E04FEA4E0E00FB0EFC38BF490058
:101840004FEA2C1C02F5FA020CFB0EF34FEACE1EF7
:101850004FEA112C4FEAC1210EEB635E42EB2242AC
:101860000EFB0CFC4FEA1C5300FB03114FEA112C3A
:101870004FEA01310EFB0CFC4FEADC4C00FB0C1173
:10188000C14228BF09184CEB03335DF804EB10EBA1
:10189000410143EBC250B2F57C0F38BF704729D5E8
:1018A00012F0F00F1CBF00F1C04000F00040704784
:1018B000008182838485868788898B8C8D8E8F9129
:1018C0009293959697999A9C9D9FA0A2A3A5A7A84D
:1018D000AAACAEB0B2B3B5B7B9BCBEC0C2C5C7C979
:1018E000CCCED1D4D7D9DCDFE2E6E9ECF0F3F7FADD
:1018F000FE0000004FEA400C0CF1807CBCF17E4FF2
:1019000028BF7047B0F1C04000F0C2B890EA010FA4
:101910000CEAD11348BF42F48072624538BF634578
:1019200007D213F47F0F16D080EA010000F00040C8
:10193000704710B500F066F8097EFC3E00F005B86F
:1019400080EA010000F00040704780EA010000F0EA
:10195000004000F09DB812F47F0F04BF02487047AA
:1019600080EA010000F094B80000C07F50EA010C4A
:1019700000F113801CF5000F58BFBCF5000F01D417
:101980008842704707D710F5000F58BF11F5000FB8
:1019900015D488427047894270471CF5000F04D562
:1019A000BCF5000FF7D5814270474FF0807C1CEBEF
:1019B000400F38BF1CEB410F01D28142704710B578
:1019C00000F020F8922449004FF000504FF0805171
:1019D000FFF7FEBE10F0004148BF4042B0FA80F36E
:1019E00010FA03F2C3F19D030BD051EAC35101EB8E
:1019F0001220530638BF704700F1010008BF20F0E5
:101A0000010070470EF1020E2EF0030E5EF8044B3B
:101A1000244204D44FEA4102B2F17F4F11D84FEA79
:101A20004003B3F17F4F0CD80ED14FEAD07CB2F116
:101A30007F4F0CEB4C0C0CF1020C08BF4CEBD17C33
:101A400004E04FF0080C01E04FEAD17C0CEB4C03B2
:101A500024FA03F404F00704B4F1040C06D20EEBEC
:101A6000840CBDE810404CF0010C6047DFE80CF03E
:101A7000070802024FF00040A0F5800010BD0846A4
:101A8000420018BFD2F1807288BF00F0004010BD44
:101A9000FF2141EAD050C0057047000090EA010FD5
:101AA00048BF81F000413FF538AE421A04D882F0B9
:101AB0000042A0EB020011444FEAD0524FF07F4C9D
:101AC0001CEA410FA2EBD15318BF9CEA026F4AD027
:101AD0004FF0004C4CEA00204CEA012121FA03FCB3
:101AE000B0EB0C0C0FD412F0FE0F36D05FEA4C00B6
:101AF0001DD5001240EBC25038BF70471CF03F0F9D
:101B000018BF70470BE0A2F101025FEA1C2040EB16
:101B1000C25038BF70471CF07F0F18BF7047C3F129
:101B20002003994014BF401E20F001007047800838
:101B30004FEA122308BF7047B0FA80FCA2EB0C02F8
:101B4000CCF1280C60FA0CF093EA122F04BF00EBE2
:101B5000C25070474FEAC3707047130A5FEADC1047
:101B600008BF7047F6E79CEA026F04D010EA5C0FEA
:101B700008BF0020704710B5FFF744FF40DFF63E76
:101B800081F000407047FEF746BE000002400000B2
:101B9000000000A00000000005400000000000C898
:101BA000000000000C4000000000409C000000000D
:101BB000194000000020BCBE0000000034400000BE
:101BC000BFC91B8E00000004B5400000504BCFD0B1
:101BD0006607E2CF010000006C4100003E8251AA7E
:101BE000DFEEA73401000000D9420000DCB5A0E21E
:101BF0003A301F97FFFFFFFFB4450000FD25A0C846
:101C0000E9A3C14FFFFFFFFFFF3F0000000000807E
:101C100000000000FF3F0000000000800000000006
:101C20005C1C00000000002010000000FC0300000D
:101C30006C1C00001000002060040000180400006C
:101C40001C00000043000000F8FFFFFF0C00000034
:101C50000E0000000F0000002E0000000000000039
:0C1C600000000000A55AA55A40787D0144
:04000005000003C133
:00000001FF
